S01A00004D58545F4558414D504C455F5553415254312E7372656387
S21440000058304020991F4000971F4000971F4000DF
S214400010971F4000971F4000971F400000000000B9
S214400020000000000000000000000000971F400095
S214400030971F400000000000971F4000971F400099
S214400040971F4000971F400055254000971F4000CF
S214400050971F4000971F4000971F4000971F400083
S214400060971F40000000000005164000191640008B
S2144000702D164000971F4000971F4000971F4000D6
S2144000804116400055164000971F4000971F4000FD
S214400090971F4000971F4000971F4000E5244000F0
S2144000A00D254000971F4000971F4000971F4000B7
S2144000B0971F4000971F4000971F4000971F400023
S2144000C0971F4000971F4000971F4000971F400013
S2144000D0971F4000971F4000971F4000971F400003
S2144000E0971F4000971F4000971F4000971F4000F3
S2144000F0971F4000971F4000971F4000971F4000E3
S214400100971F4000971F4000971F4000971F4000D2
S214400110971F4000000000000000000000000000A4
S214400120971F4000971F4000971F4000971F4000B2
S214400130971F4000971F4000971F4000971F4000A2
S214400140971F4000971F4000971F4000971F400092
S214400150971F4000971F4000971F4000971F400082
S214400160971F4000971F400010B5054C237833B9C1
S214400170044B13B10448AFF300800123237010BD35
S214400180400B40200000000014CB47000C4B43B10E
S2144001900C480D4910B5AFF300800C48036823B9EE
S2144001A010BD0A48036833B97047094B002BF7D097
S2144001B0BDE810401847064B002BF5D0184700BF47
S2144001C00000000014CB4700440B402014CB4700EF
S2144001D000000000F0B587B004460E461746816022
S2144001E0027383610025056107209D4B9847206078
S2144001F001950595022302930390072304938DF8F7
S214400200147001A93046974B9847401B18BF0120F1
S214400210404208B107B0F0BD2568A87900EB400021
S21440022040008F4B984760600023019304930593EA
S21440023007238DF80430022302930390AB7903EB37
S21440024043035B000493237B8DF8143001A9A06818
S214400250844B9847003018BF012040420028D9D12F
S21440026027686068BB7903EB430676000736B6B26C
S2144002703A4606370021DFF8F0C192F801E01578DB
S21440028045EA0E2585EA410111F0807F18BF81EAD4
S2144002900C010232BA42F0D1027843EA022383EAE2
S2144002A0410212F0807F03D082F4000282F01B02EB
S2144002B0A6F10807012F12DD0123DFF8ACE1C118D3
S2144002C04D78C15C41EA052181EA420212F0807F06
S2144002D018BF82EA0E0202339BB2BB42EFDB3044C9
S2144002E010F8083C83EA420212F0807F03D082F482
S2144002F0000282F01B0222F07F4500230193059303
S2144003008DF80460360A8DF8056002230293CDF816
S2144003100CD003230493237B8DF8143001A9A068E6
S214400320504B984728B34FF0FF33AB4240F08B809A
S2144003302568A87998B100230133DAB29042FBD8F9
S2144003406268431EDBB2013303EB430302EB430117
S214400350002053791844C0B206329142F9D1400089
S2144003603F4B98476061AB7973B100270126BE4684
S21440037037E09DF802209DF8003043EA02439DF89E
S214400380012043EA0223D0E76FF0030042E7013042
S214400390C0B262685319197981421CD35B79002B2D
S2144003A0F5D062682A445379002BF0D03346117852
S2144003B0626902F81310626902EB4302507001331F
S2144003C0DBB262682A44991B92F805C0C9B28C45D4
S2144003D0EDD81E46DBE70137FFB223689B799F4284
S2144003E007D207EB47035A00154663681344704626
S2144003F0D4E75BB31046013BDBB2013303EB430368
S21440040002EB4302002143791944C9B206308242C6
S214400410F9D1F1B162691378092B0FD0002301336B
S214400420DBB28B420CD012F8020F0928F7D15BB230
S214400430B3F1FF3F10D023770020EBE60023F6E72A
S2144004406FF00300E6E66FF00300E3E66FF00300AC
S214400450E0E66FF00300DDE66FF00300DAE600BF8B
S214400460C5424000151D40001B00800003689A7975
S214400470D2B110B4446823788B420ED0A31D013A03
S214400480D2B2013202EB420204EB4202934209D05E
S2144004901C4613F8060B8842F8D1B4F801005DF804
S2144004A0044B70470020FAE70020704730B587B00D
S2144004B000230193049305938DF804100B0A8DF8DE
S2144004C0053002230293039203689A79BAB14468CE
S2144004D0B4F801308B420FD0A31D013AD2B201329C
S2144004E002EB420204EB4202934216D01C4606330D
S2144004F0B4F801508D42F7D1E2780132D2B204927C
S214400500037B8DF8143001A98068054B984700306E
S21440051018BF0120404207B030BD0022EFE700BFC1
S214400520C11D400000B589B08DF807200023039315
S21440053007938DF80C10090A8DF80D1002230493CA
S2144005400DF10703059301230693037B8DF81C30BA
S21440055003A98068044B9847003018BF01204042EA
S21440056009B05DF804FB00BFC11D40008269074B1F
S21440057003EB52135B02D96B02F01F02012303FA0E
S21440058002F20A420CBF18460020704707072000B8
S21440059030B587B004460D46002205210D4B9847DE
S2144005A00023019305938DF80400000A8DF805009A
S2144005B002230293039509230493237B8DF814307A
S2144005C001A9A068044B9847003018BF012040425C
S2144005D007B030BD6D044000151D4000F0B585B035
S2144005E004460E46174D184F2046A84728B301A983
S2144005F02046B847034610BB9DF80430626912F89F
S2144006001320092AF0D1227F9B1A33709DF80530BB
S21440061073709DF808309DF806101A0942EA0112D8
S21440062072809DF8072003F00F0343EA0213B3805D
S2144006309DF80930B371002301E06FF003031846BC
S21440064005B0F0BD6D0540009105400010B510485E
S214400650104B98473E2100200F4B98470F4CA04721
S2144006600028FCD00E4B98470E4A0F4B9A620F4C10
S214400670A0470028FCD002200D4B984700200D4B89
S21440068098470D4B98470D48024B984710BD00BF02
S214400690000E27076D2140000517400059174000FF
S2144006A069174000013F182000060E4079174000A9
S2144006B069164000A11640006120400000A3E111E9
S2144006C0002A54D02DE9F84F924606460F468A44F3
S2144006D0DFF8B880274DDFF8B89006E02146404660
S2144006E0A8470028FAD1BA453ED017F8014B4645F0
S2144006F0F4D04E4516D0204B9E4219D01F4B9E42FA
S2144007001CD01F4B9E421FD01E4B9E4224D01E4BD9
S2144007109E42E8D1DFF87CB021461B48D8470028E7
S214400720FAD1E0E721464846A8470028FAD1DAE75A
S21440073021461148A8470028FAD1D4E721460F4859
S214400740A8470028FAD1CEE7DFF848B021460C4843
S214400750D8470028FAD1C6E7DFF838B0214609481E
S214400760D8470028FAD1BEE70020BDE8F88F002021
S214400770704700BF611E4000001A0E40001C0E402D
S214400780004002400080024000C0024000080E4088
S214400790000A0E40691F400010B50446104B9847AB
S2144007A080232360636843F001036360636843F01B
S2144007B010036360636823F0800363600021204673
S2144007C0084B9847636823F002036360636823F02E
S2144007D00403636000212046034B984710BD00BFCA
S2144007E0051A4000311A4000471A40002DE9F041F2
S2144007F004460D46164615491846154B9847074673
S21440080000231A4629682046DFF85C80C047082245
S214400810296820460F4B9847FAB2296820460E4B67
S21440082098470822296820460C4B98477208296842
S21440083020460B4B984786F0010202F001022968D9
S2144008402046084B9847BDE8F08100BF80D1F008AD
S214400850231B40000F1B4000391B4000C91A4000B4
S2144008608D1A4000AB1A4000611B400008B5436833
S21440087013F0040F06D009680F2900D908BD064BAF
S214400880984708BD09680329F8D8012303FA01F1FF
S214400890C943014B9847F1E7311A40001AB110B4EA
S2144008A00C46114406E00020704714F8013BC36034
S2144008B0A1420CD043F69923026912F0020FF4D1FC
S2144008C0013BF9D16FF002005DF8044B7047002001
S2144008D0FAE73AB170B415460C460D44FF2640F28E
S2144008E0012112E000207047C66043F69923026952
S2144008F031EA020204D0013BF9D16FF002000EE06B
S214400900836804F8013BA5420BD043F6992302695D
S21440091012F0020FE8D1013BF9D16FF0020070BC33
S21440092070470020FBE700002DE9F04180B90C46F7
S2144009309046002A0FDD8F18084E094D3068214634
S2144009402B6898470134BC42F8D14046BDE8F08158
S2144009504FF0FF38F9E78046F7E700BFEC0F40203E
S214400960E40F40200138022815D82DE9F0410E4604
S21440097014469AB10D46DFF838800C4FD8F8000080
S21440098015F8011B3B68984700280ADBA81B013C6A
S214400990F4D1BDE8F0814FF0FF3070471046BDE817
S2144009A0F0814FF0FF30BDE8F08100BFE80F4020F7
S2144009B0EC0F40202DE9F0414FF400429E4B5A6028
S2144009C0BFF34F8FBFF36F8F9C4B0022C3F850226C
S2144009D05A6942F400325A61BFF34F8FBFF36F8FAC
S2144009E0D3F88070C7F34E3607F007000430C7F3DD
S2144009F0C907B7FA87FE0EF01F0EBFF34F8F4FF0B2
S214400A00FF3404FA00FC06FA00F004FA0EF407FA83
S214400A100EFE1D463A46734640EA0301C5F860128C
S214400A20013A2344B2F1FF3FF6D1013E6044B6F1AD
S214400A30FF3FEFD1BFF34F8F804B5A6942F480326D
S214400A405A61BFF34F8FBFF36F8F7D4A7D49516028
S214400A50A1F580715160BFF34F8FBFF36F8FD3F80E
S214400A60902222F00102C3F89022D3F8942222F07A
S214400A700102C3F89422BFF34F8FBFF36F8F0A2053
S214400A80714CA0470B20A0470C20A0471020A04741
S214400A901120A0476D4E4FF48078C6F81080C6F8F7
S214400AA0A080C6F830806A4C4FF400656561C4F893
S214400AB0A0506566C4F8905065652562C4F88450B9
S214400AC0236F23F400632367636F23F40063636735
S214400AD0C4F8C050C4F8D450C4F8B0504FF4001313
S214400AE02366C4F8903063656362C4F88030226F32
S214400AF022F400122267626F22F40012626763607B
S214400B00544AD2F8143143F01003C2F8143102F5B7
S214400B10B22210231366C2F8903053655362C2F86F
S214400B208030116F19431167516F194351675360F5
S214400B3008222266C4F8902062656262C4F880206B
S214400B40216F21F008012167616F21F0080161677C
S214400B5062602366C4F8903063656362C4F8803090
S214400B60226F22F010022267626F22F01002626744
S214400B70636000234FF400524FF060513046364FCA
S214400B80B84700234FF080424FF060513046B84798
S214400B900123FF224FF000613046B84701233F2231
S214400BA04FF000612D48B84701234FF4C0324FF054
S214400BB000612046B847012342464FF00061304668
S214400BC0B84701232A464FF000613046B847012314
S214400BD04FF400224FF000612148B84700234FF4FD
S214400BE000724FF080513046B8474FF4007130469F
S214400BF01C4B98474FF0805174201B4CA0474FF039
S214400C0080517520A0474FF080517620A0474FF086
S214400C1080517B20A0474FF060511820A0474FF0EE
S214400C2060510620A0474FF060515320A047532004
S214400C300E4B9847BDE8F08150180E4000ED00E09E
S214400C40000C0E400C08005A8917400000120E4057
S214400C50000E0E40008008400D13400000160E4067
S214400C6000140E401912400015144000DD134000D9
S214400C7030B40468B4F5A07F02D340F23F14046059
S214400C801468B4F5A07F02D340F23F1414600C6899
S214400C90B4F5F07F02D340F2DF140C601C68B4F564
S214400CA0F07F02D340F2DF141C6004681568AC4243
S214400CB001D9056014600A681868824201D9086044
S214400CC01A6030BC7047000010B582B006200A4B50
S214400CD09847002303222C210848094CA0470023AC
S214400CE00193019BFE2B05D8019B01330193019B89
S214400CF0FE2BF9D902B010BDF91340000080004029
S214400D00591A400070B582B005460E461446062075
S214400D10144B98470023032229461348134DA847EF
S214400D2000230193019BFE2B05D8019B01330193C1
S214400D30019BFE2BF9D90CB902B070BD06200C4BB6
S214400D4098472246314608480A4B98470023019365
S214400D50019B5E2BF0D8019B01330193019B5E2BD8
S214400D60F9D9E9E7F913400000800040591A4000DD
S214400D70DD1340009D08400030B583B004460D4664
S214400D8006200A4B98472A4621460948094B984769
S214400D9000230193019BFE2B05D8019B0133019351
S214400DA0019BFE2BF9D903B030BD00BFDD134000D8
S214400DB0008000409D084000014630B1034A044B85
S214400DC0013BFDD19142FAD870477047A186010099
S214400DD0A086010000B583B058B948238DF8073087
S214400DE001220DF107013620044B984703B05DF809
S214400DF004FBE8238DF80730F2E700BF050D4000FE
S214400E0010B584B0ADF80E00013A0244ADF80C209F
S214400E10ADF80A10013B1944ADF80810030A8DF8E6
S214400E2004308DF80500C2F307238DF806308DF8A0
S214400E30072004220DEB02012A20104CA047002276
S214400E4011461046A0479DF80B308DF804309DF8AB
S214400E500A308DF805309DF809308DF806309DF83B
S214400E6008308DF8073004220DEB02012B20A047F6
S214400E70002211461046A04704B010BD050D4000A4
S214400E8008B5002211462920014B984708BD00BFEF
S214400E90050D400010B4C0F30744C0F30721064BCD
S214400EA003F570721C705970987003339342F9D1F1
S214400EB05DF8044B704700BF5C0B402010B584B013
S214400EC0ADF80600ADF80410030A8DF80C30C0B239
S214400ED08DF80D008DF80E308DF80F00042203A912
S214400EE02A200E4CA047002211461046A0479DF8E7
S214400EF005208DF80C209DF804308DF80D308DF8C7
S214400F000E208DF80F30042203A92B20A047002284
S214400F1011461046A04704B010BD00BF050D400066
S214400F202DE9F04387B08146032706AE46F8087D94
S214400F305D4D28465D4B9847002400945C4B3A46EE
S214400F4031462846DFF89881C0472246394628462B
S214400F50584B984731462846574B984701202860BB
S214400F60686122462146554EB047C820544DA84792
S214400F70224621461120B047C820A84781238DF835
S214400F800A308DF80B4010264FF001084B4F25468F
S214400F9042460DF10A01FB20B8479DF80A3001335E
S214400FA08DF80A300395039BFE2B05D8039B01332F
S214400FB00393039BFE2BF9D92A462946D320B847EC
S214400FC00620404B984742460DF1090136483E4BB5
S214400FD098470395039BFE2B05D8039B0133039349
S214400FE0039BFE2BF9D99DF80930B3401C4342467B
S214400FF00DF10B01FB20B8470395039A40F6FE73AC
S2144010009A4206D81A46039B01330393039B9342A6
S214401010F9D9083E16F1080FBAD149F288439C42E6
S21440102003D0012007B0BDE8F08306AD482305F89D
S214401030013D012229463620204EB0476420204CF0
S214401040A04704238DF8173001222946CF20B04709
S2144010506420A04706238DF81730012229463A20FF
S214401060B0476420A047002211461320B0476420B2
S214401070A047164B98476420A0470020144B98473B
S2144010806420A047B9F80430B9F80020002108468B
S214401090104CA047D9F808000F4B98470021084647
S2144010A00E4B98470020BDE700800040990740005F
S2144010B0002D3101C91A40006D084000050D400062
S2144010C0B90D4000DD134000D3084000810E4000BB
S2144010D0D50D4000010E4000950E4000BD0E40006C
S2144010E0ED0740002DE9F04184B003900291019253
S2144010F004AA42F8103D134601AA02A903A8224CAE
S214401100A047BDF80C00BDF80810009B01335B1AE1
S214401110019A0132121A9BB292B21C4CA0471C4B49
S21440112098470399019D691A009D0135029BED1A67
S21440113001FB0555174BA3FB05231B0A63B15C1E39
S214401140DFF858804FF47077134E39464046B04724
S214401150013CB4F1FF3FF8D10E49A1FB0531090A25
S21440116001EB8101A5EB811101EB41010B480A4BD4
S21440117098474FF4F0734FF4A07200210846034C92
S214401180A04704B0BDE8F081710C4000010E40005D
S214401190C90C4000CDCCCCCC790D40005C0B402037
S2144011A010B584B003900291013A10440190013B7F
S2144011B0194404AB43F8101D01AA02A903A8134C16
S2144011C0A047BDF80C00BDF80810009B01335B1A21
S2144011D0019A0132121A9BB292B20D4CA047039963
S2144011E0019A511A029A009B9A1A02FB01F202EBEC
S2144011F0420206992C20074B98474FF4F0734FF461
S214401200A07200210846A04704B010BD710C4000F3
S214401210010E4000050D4000016370474264B1F185
S214401220C05F3AD013D8B1F1006F25D0B1F1805FDE
S2144012300AD1036F13430367436F416F0B4023EAA2
S21440124002034367426070470029FBD17047B1F103
S214401250205F21D009D8B1F1005FF3D1036F13436B
S2144012600367436F13434367ECE7B1F1405F13D026
S214401270B1F1605F10D0E5E710B4016F046FD3435F
S21440128021401C4619400167436F416F0B40234085
S214401290436742605DF8044B7047036F016F0B4035
S2144012A023EA02030367436F13434367CAE7416475
S2144012B012F0010F0DD1016612F00A0F0BD0016239
S2144012C012F0020F09D112F0080F08D0C0F88410AF
S2144012D005E04166F0E74162F2E7C0F88010416100
S2144012E00160704710B4019C41644CB901664BB133
S2144012F001654AB94163016101605DF8044B70477E
S2144013004166F4E74165F4E70163F4E770B582B0FF
S214401310054616461C46B1F1005F14D00AD9B1F115
S214401320405F24D0B1F1605F21D0B1F1205F17D08B
S21440133000201AE0B1F1805F05D0B1F1C05F02D065
S214401340B1F1006FF4D132462846114B984714F05D
S214401350010F02D12E66012007E06E66012004E0F0
S2144013601A4631460B4B9847012002B070BD04F038
S21440137001030093C4F38003B1F1605F14BF002201
S214401380012231462846044CA0470120EDE700BF25
S2144013901D124000AF124000E512400012F0100F40
S2144013A012D0C0F8B01012F0200F07D0C0F8D410FA
S2144013B012F0400F05D0C0F8C0107047C0F8D010EB
S2144013C0F6E7C0F8C4107047C0F8B4107047016420
S2144013D07047C06C7047806C70470000054B03EB4D
S2144013E050135B0200F01F00012202FA00F018635F
S2144013F0704700BF07072000054B03EB50135B0206
S21440140000F01F00012202FA00F05863704700BF48
S2144014100707200070B582B00D46464C04EB5014CA
S214401420640201F0F043B3F1005F59D00AD8B3F13B
S214401430805F2FD0B3F1C05F3FD0B3F1006F16D0BE
S214401440002012E0B3F1405F5DD0B3F1605F5AD048
S214401450B3F1205FF4D100F01F0101262A4606FAB8
S21440146001F12046344B9847304602B070BD00F03C
S2144014701F000126864032464FF0006120462F4B23
S214401480984715F0010F02D126660120EDE7666603
S2144014900120EAE700F01F000126864032464FF062
S2144014A080512046254B984715F0010F02D12666FD
S2144014B00120DAE766660120D7E700F01F00012624
S2144014C0864032464FF0C05120461C4B984715F098
S2144014D0010F02D126660120C7E766660120C4E7F1
S2144014E000F01F000126864032464FF0005120464D
S2144014F0124B984715F0010F02D126660120B4E73B
S21440150066660120B1E705F0605200F01F01012633
S21440151005EA06030093C5F38003B2F1605F14BF8B
S2144015200022012206FA01F12046054CA04730462B
S2144015309BE700BF07072000AF1240001D12400087
S214401540E51240002DE9F041044688460E4B984788
S214401550054620460D4B9847054013D00C4C04F1E9
S214401560600603E0B4420DD010345DB120684045BB
S214401570F8D161682942F5D0E3689847636825EA60
S2144015800305EFE7BDE8F081D3134000D7134000D2
S2144015901C0F4020F8B5184C2668062E2AD84FF067
S2144015A0000C6446154F04E00134E4B2A446A6425B
S2144015B009D3A64625017D598D42F5D107EB041582
S2144015C06D689542F0D10D4D4FEA0E1E05EB0E04A8
S2144015D045F80E106260A3600699E16001366645E4
S2144015E005D011461A46064B98470020F8BD0249DA
S2144015F00E60F6E70120F8BD8C0F40201C0F4020FF
S2144016009D13400008B50A210148024B984708BD83
S214401610000E0E404515400008B50B210148024B10
S214401620984708BD00100E404515400008B50C21EF
S2144016300148024B984708BD00120E404515400031
S21440164008B510210148024B984708BD00140E40CB
S2144016504515400008B511210148024B984708BD82
S21440166000160E4045154000032811D0042812D01D
S21440167002280CBF4FF480710021084A136B23F4F4
S21440168040730B431363936E13F0080FFBD0704701
S2144016904FF44071F1E74FF40071EEE700060E405C
S2144016A0174A136B23F0700318431063936E13F0BE
S2144016B0080F0AD14FF4805311498A6E12F0080F72
S2144016C003D1013BF9D1012070470D4A136B23F03B
S2144016D0030343F002031363936E13F0080F0AD11B
S2144016E04FF4805306498A6E12F0080F05D1013B2D
S2144016F0F9D101207047002070470020704700BF96
S21440170000060E40A0B90E48036A090289B20D4A87
S2144017101A400D4B1343194301620246936E13F071
S214401720010FFBD0064A116A084B0B431362704701
S21440173003490B6A064A1A40064B13430B6270472E
S21440174000060E40FCFFC8FF0100370000003701CE
S214401750FCFFC8FE02003701024B986E00F4803052
S214401760704700BF00060E404FF00052014B9A6291
S214401770704700BF00060E40024B986E00F0020015
S214401780704700BF00060E4000F07F00054BC3F8D0
S2144017900C01D3F80C2142F01022C3F80C21002093
S2144017A0704700BF00060E4021B9436823F001038E
S2144017B043607047436843F00103436070470162EB
S2144017C070474162704730B485688468A54203D04C
S2144017D085688468AC42FBD161B1C4F3015000EB2C
S2144017E08005C4F3034000EB450014F4800F18BF97
S2144017F00C30086042B1C4F3023101EB8101C4F3FE
S214401800032000EB4101116043B1C4F3021202EB26
S214401810820204F00F0404EB42041C6030BC7047A4
S214401820F0B4446814F0010F05D00C2903D90C39E4
S2144018304FF4800700E000271C4CA4FB0356F60834
S21440184006EB8605A3EB450343EA0613A4FB0265B5
S214401850ED0843EA053305EB8505A2EB450543EA6B
S21440186005233B43A4FB0142D20843EA025302EB62
S2144018708202A1EB420143EA0141836913F0040F5F
S214401880FBD0036843F001030360836913F0010F44
S214401890FBD00123C3618160036823F0010303602A
S2144018A0C06A00F00100F0BC704700BFCDCCCCCC85
S2144018B0F0B5059C069D079F0E46B1B1416811F0F4
S2144018C0010F05D00C2A03D90C3A4FF4800600E0ED
S2144018D000261949A1FB02E1C90801EB810EA2EBE3
S2144018E04E02120442EA015216435BB1124BA3FB6E
S2144018F00423DB0803EB8302A4EB4204240244EAFD
S2144019000334264355B10C4BA3FB0723DB0803EBFC
S2144019108302A7EB420747EA03131E430269074BBD
S2144019201340036106610269054B13430361C06AB5
S21440193000F00400F0BD00BFCDCCCCCC7F7F7FFF55
S2144019408080800070B42A4DA5FB0346F608039CB1
S214401950640544EA067406EB8606A3EB460344EAAF
S2144019600363A5FB0264E40843EA045304EB8404DF
S214401970A2EB440243EA02421E4BA3FB01439B09EF
S21440198042EA03121C4BA3FB01435B09A5FB03641D
S214401990E40804EB8404A3EB44031A43A5FB014389
S2144019A0DB0803EB8304A1EB440142EA0122A5FBDA
S2144019B00315ED0805EB8505A3EB450542EA053220
S2144019C0836913F0040FFBD0036843F002030360FF
S2144019D0836913F0010FFBD00123C361C260036823
S2144019E023F002030360C06A00F0020070BC704738
S2144019F0CDCCCCCCD34D62101F85EB51806970475F
S214401A00C161704708B5074B984203D0064B9842D1
S214401A1004D008BD1520054B984708BD2A20034B27
S214401A209847F6E700800040008005408917400050
S214401A30436823F4702343604368090401F470212B
S214401A40194341607047436823F07F4343604368CF
S214401A5043EA01614160704730B443F69924056912
S214401A6015F0020F03D1013CF9D101200CE0446887
S214401A7014F0020F06D0120402F4702211430BB188
S214401A8041F08071C160002030BC704732B900EB35
S214401A908100036B23F001030363704700EB810072
S214401AA0036B43F001030363704732B900EB8100D8
S214401AB0036B23F002030363704700EB8100036B64
S214401AC043F0020303637047042A03D06AB1082A2E
S214401AD016D0704700EB8100036B23F008030363C6
S214401AE0036B43F004030363704700EB8100036B12
S214401AF023F008030363036B23F004030363704778
S214401B0000EB8100036B43F008030363E1E700EB5F
S214401B1081010B6B23F0F0030B630B6B1A430A63D4
S214401B207047431E1944B1FBF0F0431EFE2B94BF92
S214401B3000B24FF0FF3070477AB110B4144600EB55
S214401B4081010B6B23F47F430B630A6B42EA04224A
S214401B500A6300205DF8044B70474FF0FF30704733
S214401B6010B400EB8101086B80B208630C6B44EA4A
S214401B70036343EA02430B635DF8044B704710B4BB
S214401B8089014318022444504FF0FF319962196A84
S214401B905A605DF8044B70478901052343507047EF
S214401BA000EB8111CA61704700EB81114A627047B1
S214401BB000EB81118A62704700EB8111086A70471A
S214401BC0F0B486B00224019408240294202403949E
S214401BD0802404940A9CE40B0594B0EB510F14D86F
S214401BE04C0CA04217D2012501AF57F82540B1FB57
S214401BF0F4F4260C84420AD386420DD90135052DCD
S214401C00F3D1002006B0F0BC70470020FAE7002071
S214401C10F8E70120F6E700252AB106A901EB850181
S214401C2051F8141C1160002BF3D01D600120E9E729
S214401C30284B99424BD8A3F57A5399422DD910B4E4
S214401C40254CA4FB0234A40B033C244B0B449B00C2
S214401C50B2FBF3F2033AFF2C1DD900210131640890
S214401C60FF2C01D90629F9D9FF2A07D9062905D814
S214401C7001315208FF2A01D90629F9D913029BB22D
S214401C80090401F4E0210B43E4B22343036100203E
S214401C905DF8044B70470021E6E74900B2FBF1F2DD
S214401CA0033AFF2A11D9002301335208FF2A01D9EB
S214401CB0062BF9D9110289B21B0403F4E0230B4327
S214401CC0D2B21A430261002070470023F2E7012097
S214401CD0704700BF801A0600F11976050012FD3FD6
S214401CE008B54FF0FF328262026A80220260026BC1
S214401CF00822026020220260042202600A684968C4
S214401D00034B9847012814BF0020012008BD00BFA0
S214401D10311C4000CA68002A4CD070B48C6800263B
S214401D2046604B681B0203F4407343F480530D7CBB
S214401D302D0405F4FE052B434360C6604D685DB137
S214401D400B78012D02DD4E7846EA0323022D04DD92
S214401D50897841EA032300E00023C360012303603F
S214401D60022512E0056013F0020F1BD0036B2370B0
S214401D70036A13F0010FFBD0036A002070BC704763
S214401D80036B04F8013B013AF2D0036A13F4807FF8
S214401D9014D147F23051012AE4D013F0020FEFD1AC
S214401DA0002AE5D0036A13F4807F05D10139F2D1C9
S214401DB00920E3E7012070470520DFE70520DDE73F
S214401DC0CB68002B43D070B48C68002646600A7CF3
S214401DD0120402F4FE024D682D0205F440752A43B3
S214401DE04260C6604D685DB10A78012D02DD4E78CE
S214401DF046EA0222022D04DD897841EA022200E00A
S214401E000022C26004E014F8012B4263013B0FD06D
S214401E10026A12F4807F1ED112F0040FF3D1026AD8
S214401E2012F4807F15D112F0040FECD1002BF6D1BE
S214401E30036A13F4807F11D113F0040FF8D0022305
S214401E400360036A13F0010FFBD0002004E001207A
S214401E507047052000E0052070BC70470520FBE772
S214401E60436913F0020F02D0C16100207047012081
S214401E707047436913F0010F03D083690B7000204D
S214401E8070470120704710B40B01934214D9C90023
S214401E904B0803EBC202B2FBF1F2D3085C1E4FF6CE
S214401EA0FE718C4201D9012017E0416841F40021BF
S214401EB041600CE0012010E0590801EBC202B2FB81
S214401EC0F3F2D3085C1E4FF6FE718C42F2D8120431
S214401ED002F4E0221A43026200205DF8044B704789
S214401EE0084BC0F8E4300023436043628362882393
S214401EF00360242303604FF4807303604FF4002391
S214401F00036070470041535570B505460C4616466B
S214401F100F4B984700220F4B1A60A4B132462168F7
S214401F2028460D4B9847024678B96368A1680B432C
S214401F3021690B43E1680B4306490B6069680B4314
S214401F406B60104670BD0122FBE70122F9E700BF37
S214401F50E11E4000900F4020871E40004023036053
S214401F607047102303607047436913F0020F04D094
S214401F70C1F30801C16100207047012070474369E2
S214401F8013F0010F05D08369C3F308030B600020EC
S214401F90704701207047FEE700B583B0254B264AC0
S214401FA09A4210D0254B234A9A420CD2013B9B1AA8
S214401FB023F00303043313441F4951F8040B42F83B
S214401FC0040B9A42F9D11E4B1E4A9A420AD2013B52
S214401FD09B1A23F0030304331344002142F8041BE6
S214401FE09342FBD1184A194B23F07F039360EFF3DB
S214401FF01083B3FA83F35B09019372B6BFF35F8F26
S2144020000022134B1A700199124A136843F4700366
S2144020101360BFF34F8FBFF36F8F29B101220C4B74
S2144020201A70BFF35F8F62B60B4B98470B4B9847BF
S214402030FEE700BF0000402014CB4700400B402086
S21440204054104020400B402000ED00E000004000CF
S2144020500A00402088ED00E075424000A52C400074
S2144020603B4B1B6B03F00303012B1DD083B1022BAC
S21440207036D0374B1B6B03F07003702B5FD0344B5E
S2144020801A6B3449C2F302120B68D3400B60704798
S214402090314B5B6913F0800F14BF4FF400424FF48E
S2144020A0FA422C4B1A60E4E7294B1B6A13F0807FF8
S2144020B003D02A4A274B1A60DBE7294A254B1A6089
S2144020C0234B1B6A03F07003102B05D0202BD0D176
S2144020D0224A204B1A60CCE7224A1E4B1A60C8E7B9
S2144020E01B4B1B6A13F0807F16D01C4A194B1A6094
S2144020F0174B1B6B03F00303022BBAD1144A916AA9
S214402100926A1448C1F30A41036801FB0333D2B212
S214402110B3FBF2F30360ACE7114A0E4B1A600C4B6C
S2144021201B6A03F07003102B05D0202BE0D10B4A1E
S214402130084B1A60DCE70B4A064B1A60D8E7054A9C
S21440214013680949A1FB03135B081360704700BF7F
S21440215000060E400C00402010180E40001BB70032
S21440216000093D0000127A00ABAAAAAA164B984274
S21440217013D9164B984215D9154B984216D9154B7C
S214402180984217D9144B984218D9144B984294BF8A
S214402190134A144A144B1A6070474FF08062124B31
S2144021A01A607047114A104B1A607047104A0E4B1F
S2144021B01A6070470F4A0C4B1A6070474FF0042263
S2144021C0094B1A60704700BFBFF35E017FE7BD0250
S2144021D03FDB1C04FFCE7B05BFC2DA067FB639085C
S2144021E00005000400060004000C0E400001000438
S2144021F000020004000300040A4B1B6853B1094B5D
S2144022001B681A180849914208DB1046054A1060B8
S21440221018467047054A034B1A60F0E74FF0FF3008
S214402220704700BF940F4020FCFF452058324020A6
S2144022304FF0FF3070474FF400534B60002070471C
S21440224000207047114B1B78F3B910B582B0104A86
S2144022501378B3FA83F35B091370137853B90D4BB5
S214402260009340231A464FF4CB71E0200A4CA04717
S21440227002B010BD094B009340231A464FF4CB7171
S214402280E020054CA047F3E7704700BFA40F40206E
S2144022909E0F4020007C4500A111400000F0430006
S2144022A0F0B583B005460C46002301932A4B98426E
S2144022B013D02A4B984218D0294B98421DD0294B10
S2144022C09D4222D0284B9D4227D0284B9D422ED05F
S2144022D0274B9D4235D003B0F0BD1F46254E2146C4
S2144022E03846B0470028FAD1E9E71F46214E214636
S2144022F03846B0470028FAD1E4E71F461D4E21462F
S2144023003846B0470028FAD1DFE71F46194E214627
S2144023103846B0470028FAD1DAE71E46164D01A9DE
S2144023203046A8470028FAD1019B2370D3E71E46C3
S214402330114D01A93046A8470028FAD1019B2370C9
S214402340C9E71E460C4D01A93046A8470028FAD1D9
S214402350019B2370BFE700BF00080E40000A0E40F6
S214402360001A0E40001C0E40004002400080024012
S21440237000C00240731E40007F1F400070B50C46F0
S2144023802A4B984213D02A4B984219D0294B984250
S2144023901FD0294B984225D0284B98422BD0284B0B
S2144023A0984231D0274B984237D0002070BD1E4609
S2144023B0254D21463046A8470028FAD1012070BD59
S2144023C01E46214D21463046A8470028FAD1012016
S2144023D070BD1E461C4D21463046A8470028FAD1FF
S2144023E0012070BD1E46184D21463046A84700289D
S2144023F0FAD1012070BD1E46144D21463046A847EE
S2144024000028FAD1012070BD1E46104D21463046A8
S214402410A8470028FAD1012070BD1E460B4D214624
S2144024203046A8470028FAD1012070BD00080E406B
S214402430000A0E40001A0E40001C0E4000400240AB
S2144024400080024000C00240611E4000691F4000FC
S21440245010B40A4A0A4B53630A48906342630A49D7
S21440246081634863094C8C6361630949A1634C638B
S2144024708B6359639A635DF8044B70475001402064
S214402480500040209000402010014020D0004020C6
S2144024901000402010B582B00E4A1378B3FA83F38A
S2144024A05B091370137853B90B4B009340231A46BD
S2144024B04FF4CB712020094CA04702B010BD084B0A
S2144024C0009340231A464FF4CB712020034CA0477C
S2144024D0F3E700BF9F0F402000984700A11140003F
S2144024E0004C450000B583B000210548054B984791
S2144024F00190019B0122044B1A7003B05DF804FB67
S21440250000C00040B91B4000AA0F402000B583B071
S21440251001210B480B4B98470190019B0A4A1378C0
S2144025200133DBB21370094B1B782BB11378DBB247
S214402530012B01D9064B984703B05DF804FB00BF5A
S21440254000C00040B91B4000AC0F40209F0F402009
S2144025509524400038B51448144B9847044610F06C
S214402560040F11D114F0020F16D10F4D0121284649
S2144025700F4CA04708212846A04710212846A047D0
S21440258020212846A04738BD04210748084B9847D5
S2144025900122084B1A70E5E702210348044B98478E
S2144025A00122054B1A70E0E760180E40FD19400006
S2144025B0011A4000A80F4020A70F4020044A137875
S2144025C0B3FA83F35B0913700122024B1A7070470B
S2144025D0AB0F4020A90F4020034640BB35490A7840
S2144025E00132D2B20A700A78D2B2032A02D9002146
S2144025F0304A11702F4A11782F4A52F821102F4A2C
S2144026001162032B28D12E4A13780133DBB21370A4
S2144026101378DBB2032B02D90022294B1A70284BC1
S2144026201A78284B53F82220244BDA623EE00128E1
S2144026301DD125490A780132D2B20A700A78D2B240
S214402640032A02D90021204A11701F4A11781F4AD6
S21440265052F82110194A5162042B1DD1174A92F89C
S2144026603030B3FA83F35B0982F830301EE002283C
S214402670C7D117490A780132D2B20A700A78D2B264
S214402680032A02D90021124A1170114A1178114AC0
S21440269052F82110094A9162052B07D1074A92F851
S2144026A03130B3FA83F35B0982F8313001220A4BAA
S2144026B01A7070479B0F40206C944000500040209A
S2144026C0990F4020C09340009A0F40205C944000F1
S2144026D0980F4020B09340009C0F40200E4B1B7834
S2144026E043B90E4B1B7873B901230D4A13700A4A3F
S2144026F01370704701230B4A1370084A1370002268
S214402700054B1A7070470022044B1A700123024A88
S2144027101370054A13707047A40F4020A20F402044
S214402720A30F4020A10F4020A60F402030B583B015
S2144027300220114B9847114C00212046104B9847D9
S2144027400F2300930823042240F2E37120460D4DE8
S214402750A84700231222102120460B4CA0470B4BC3
S2144027600422C3F88020C3F88021002183F8021396
S2144027701A6003B030BD00BF8917400060180E4095
S214402780A9174000451940002118400000E100E02C
S2144027902DE9F04385B006460C461746984608464F
S2144027A0154B9847154D009502AB03AA294640465F
S2144027B0DFF85C90C847029A42F480423946304679
S2144027C00F4B9847039AB5FBF2F2B2FBF8F2394644
S2144027D030460C4B984763B25B0904F01F04012255
S2144027E002FA04F4084A42F8234039463046074B7A
S2144027F0984705B0BDE8F0838917400000A3E11173
S2144028007F1B4000A11B400000E100E0991B4000F8
S214402810C11B400010B582B00A20104B9847104CA0
S21440282009224FF4006120460E4B98474FF4006152
S21440283020460D4B98470D4B009350234FF40062B3
S2144028400A2120460A4CA0470A4B4FF480621A6081
S214402850202283F80A2302B010BD00BF891740002B
S214402860000E0E40AF124000CF13400045224000FD
S2144028709515400000E100E02DE9F04782B01F4684
S214402880DDF828800B780BB30546164618460C46EE
S214402890DFF8409003E014F8013F1846B3B16A7A77
S2144028A09A42F8D32B7AC01A6B6803EBC00ADAF860
S2144028B00410CB888A880968009139463046C84754
S2144028C0DAF804309B8843441E44E4E702B0BDE88F
S2144028D0F08700BFA111400010B58AB01E4B009390
S2144028E040231A460A2180201C4CA0471C4B0093CC
S2144028F040231A460A212020A0471A4B0093402323
S2144029001A460A21E020A047174B009340231A4658
S2144029104FF4CB712020A047144B009340231A4617
S2144029204FF4CB71E020A047114B009380231A460A
S214402930B0216020A0470F4B93E803000290ADF80B
S2144029400C100123009354230A2202A90A480B4C78
S214402950A0470AB010BD00BF008C4400A111400043
S2144029607C9440007CC440000098470000F0430040
S214402970009C4600E89340002C8C4000792840009C
S21440298070B504460D46784B1B78002B79D1002253
S214402990764B1A70764B1B78002B6AD1754B1B789A
S2144029A03BB1A0F16003802B03D8A1F1B003802B8C
S2144029B017D9714B1B78DBB9704B1B78C3B9A4F1A0
S2144029C02006402E00F2C380A5F10A03402B0BD907
S2144029D0694B1B78F3B9694B1B787BB1A4F1200691
S2144029E018E0674B9847E4E70122664B1A70EFE71A
S2144029F0614B1B7853B9614B1B783BB9A4F1E0039C
S214402A00402B03D8A5F10A03402B27D9A4F1200672
S214402A10402E03D8A5F5CB73402B23D9564B1B78B5
S214402A2013B9564B1B782BB1202E03D8A5F1E003E3
S214402A30202B1AD9504B1B781BBB504B1B7803BB23
S214402A40514B1B78EBB1A4F58B73202B19D8A5F10D
S214402A505403202B15D84D4B984712E001224C4B7F
S214402A601A70D3E74B4B9847D8E701224A4B1A7067
S214402A70E0E7A0F12003402B03D8A1F5CB73402B11
S214402A8005D9394B1B78DBB2012B06D070BD10221E
S214402A9001214248424B9847F3E7354B1B78002BC1
S214402AA048D1A4F18003402B03D8A5F5AB73402B47
S214402AB025D9A4F58B73202B17D8A5F16803202BB6
S214402AC020D9A5F19003202B20D9A5F1B803202BBF
S214402AD020D9A5F1E003202B20D9A5F58473202B1F
S214402AE020D9A5F59873202B20D9203C402CCDD852
S214402AF0A5F5CB75402DC9D8264B984770BD234BBE
S214402B009847D6E70020274B9847DAE70120254B21
S214402B109847DAE70220234B9847DAE70320214B11
S214402B209847DAE704201F4B9847DAE705201D4B05
S214402B309847DAE7203C402CA8D8A5F5CB75402D21
S214402B40A4D8102201211548154B984770BD0A4B52
S214402B501B78002B7FF462AF084B1B78002B3FF4AA
S214402B604DAFA4F1200659E7AB0F4020AC0F4020F4
S214402B709F0F40209E0F4020A40F4020A20F4020D1
S214402B80DD264000A50F40209D0F4020BD2540007B
S214402B90A00F402095244000A70F402000C00040D2
S214402BA0A91B4000D92540002DE9F04FCFB005467F
S214402BB0D222002119A82F4B984700242E4FDFF829
S214402BC0DC90DFF8DC8010E09DF85930C02B3ED01A
S214402BD004A919A8294B98470134E4B22846284B43
S214402BE09847022C38D8002836D016A92846B84729
S214402BF00028F3D1BDF85C1001EB8106C6F39316AE
S214402C00C6F5A07BBDF85A30C3EB031ACAF3D31AF5
S214402C109DF85820CDF80CA0CDF808B09DF8590086
S214402C2001900091494604A8C047C6F59076402ECC
S214402C30CAD8AAF5CB73402BC6D89DF85930202B5E
S214402C40C2D1102201210F480F4B9847BCE751468E
S214402C5058460E4B9847BBE714B94FB0BDE8F08FC7
S214402C6019A80B4B9847024619A90A480A4B984799
S214402C70F3E700BF35484000DD054000F94A400014
S214402C806D05400000C00040B11B40008129400057
S214402C90014C400000800240C106400010C847007A
S214402CA0AD4A40002DE9F04FADF5217D9D4B98474C
S214402CB004469D4B98479D4B98479D484FF4A073BC
S214402CC003604FF4F07343609A4B8360C3609A4B43
S214402CD0984740F2DF1340F23F1200210846DFF8E3
S214402CE0F882C047954B9847954E0F2300221721F0
S214402CF03046944DA84701231A4618213046A84727
S214402D00914B9847914D15AB95E8070003C31A8041
S214402D102EAE05F10C070FCF0FC60FCF0FC63B6880
S214402D2033600DAB05F1300207CA03C31A7025AEF7
S214402D303C350FCD0FC60FCD0FC62B683370002520
S214402D401F95834B1E934A278DF87C70DFF88C9234
S214402D50CDF874901320DFF888A2D0477D4E1DA989
S214402D6030467D4B984702233A46314698A87B4EDC
S214402D70B0472A46062198A8794EB0470122014618
S214402D8098A8784FB8477848784B98472A460721FE
S214402D9098A8B0472022014698A8B8472A46072157
S214402DA098A8B047411C102289B298A8B8472A462E
S214402DB0072198A8B047811C4B2289B298A8B847EB
S214402DC02A46072198A8B047C11C842289B298A8F1
S214402DD0B8472A46082198A8B04715AA014698A899
S214402DE0DFF800B2D8472A46092198A8B0472EAA4D
S214402DF0014698A8D8472A462E2198A8B0470DAA3B
S214402E00014698A8D8472A46382198A8B04725AA08
S214402E10014698A8D8472A46062198A8B047811C5C
S214402E20012289B298A8B847514E524B1E60524A6A
S214402E30524B1A60524A534B1A604FF4E1332E936A
S214402E40C0232F934FF400633093319532950E2074
S214402E50D0474A462EA930464B4B984730464B4BB8
S214402E60984730464A4B98474A4F3B6829469868A9
S214402E70494EB0473B6829465868B047474F0421FB
S214402E803846474EB04702213846B047454B9847EC
S214402E90214690A8444B984701230093542374221C
S214402EA090A94248424EB0474FF4B1734FF49E72D9
S214402EB04FF49D712846C047A26AE36AAA4214BFEF
S214402EC01A462A46236A616A01FB0323394A13607D
S214402ED094F830306BB115461068374B98474FF032
S214402EE03332364B364EB047364B984728602B68C1
S214402EF02B60304B1968344A11601A6800233349F6
S214402F0088A8334DA847012300934FF4A7736A223D
S214402F1088A92648264DA84780AD2E4E0FCE0FC511
S214402F2062E000BF512440004D064000B509400015
S214402F3014104020FCFCFC00210F40002D274000D0
S214402F4000C000409127400015284000AC8B400050
S214402F50801A060000800140E11C4000D501400078
S214402F606D04400025054000D8283200010040206E
S214402F7000800240EC0F40207D234000E80F4020B8
S214402F80A1224000E40F4020091F40005D1F400082
S214402F90631F4000940140200D49400060180E40D9
S214402FA0C3174000D9284000394B40002C8C4000C5
S214402FB079284000FC0F4020253D40003333F33F46
S214402FC0113E400035424000F80F402000C8470000
S214402FD0AD4A40000C8C4000E510400080D1F0081F
S214402FE089174000AD04400096E80F0085E80F00C2
S214402FF000237F93DFF850B2F2E298A87E4B9847C2
S214403000F4E27F9A7F9B7F99A0A800EB830353F856
S214403010803CDB8800EB820252F8802C928800EBE2
S214403020810151F8801C09680091E0214FF48070BE
S214403030724DA8477F9B01337F937F9B072B01DD13
S21440304000237F9300226E4B1A70D7E2A46B7C233A
S2144030504FF49E72542174206A4DA847214625A8F5
S214403060694B9847012300935423742225A9674847
S214403070674DA847E16BCB888A88096800910A218A
S21440308080205E4DA847634B9C423ED00022624B58
S2144030901A7094234FF4AB7254214FF48B70594DF1
S2144030A0A847A26AE36A002A14BF1A460022236A87
S2144030B0616A01FB0323594A136094F830306BB1C0
S2144030C015461068564B98474FF03332554B564E80
S2144030D0B047564B984728602B682B604F4B196873
S2144030E0534A11601A68002352492EA8524DA847E9
S2144030F0012300934FF4A7736A222EA94348444DF8
S214403100A84700224D4B1A7082E20122424B1A70A9
S2144031104B4B009320231A4654214FF48B70A847FC
S214403120BFE7646B7C234FF49E7254217420354D68
S214403130A847214625A8344B98470123009354239B
S214403140742225A93148324DA847E16BCB888A883E
S214403150096800910A218020284DA8472D4B9C42A3
S2144031603ED000222C4B1A7074234FF49B7254218D
S2144031704FF48B70234DA847A26AE36A002A14BF17
S2144031801A460022236A616A01FB0323234A13601E
S21440319094F830306BB115461068214B98474FF085
S2144031A03332204B204EB047204B984728602B6840
S2144031B02B601A4B19681E4A11601A6800231D4975
S2144031C02EA81D4DA847012300934FF4A7736A22EB
S2144031D02EA90E480E4DA84700221A4B1A701CE224
S2144031E001220D4B1A70164B009320231A46542189
S2144031F04FF48B70A847BFE7A92B4000A1114000B1
S214403200AA0F4020E5104000394B40002C8C40006F
S21440321079284000500040209D0F4020FC0F402061
S214403220253D40003333F33F113E400035424000D9
S214403230F80F402000C84700AD4A4000A00F40208D
S21440324000204400A50F4020A70F40200421AA4894
S214403250AA4DA8470221A848A847002312221021B9
S214403260A548A74DA847A74BA74AA849A248DFF8B4
S2144032702083C047A64DA74EA74F2B463246394619
S2144032809D48C0473A683368A4490868296802914F
S21440329001210191034400930B469748A04DA8474F
S2144032A0102200219F48A04B9847A04A1368013B34
S2144032B0136000229E4B1A709E4B009380231A4642
S2144032C0B02160209C4DA8477F9A7F9B7F99A0A8FD
S2144032D000EB830353F8803CDB8800EB820252F815
S2144032E0802C928800EB810151F8801C096800917F
S2144032F0E0214FF48070A847904B009320231A4655
S214403300E0211846A8477F9B01337F938C4B1B7860
S214403310002B40F098818B4B1B78002B40F0C381EC
S214403320894B1B78002B00F09480884B1B78002B31
S21440333000F04E824FF4CB7340F23F120021084615
S214403340834DA847DFF84CA2226A514605A8DFF80D
S2144033504892C8474FF00108CDF800806823742291
S21440336005A97C487C4FB8477C4E009620231A46D9
S21440337068214FF48B70704DA847626A51460DA87D
S214403380C847CDF80080902374220DA97148B847ED
S214403390009620231A4690214FF48B70A847A26AC5
S2144033A0514615A8C847CDF80080B823742215A901
S2144033B06848B847009620231A46B8214FF48B70C9
S2144033C0A847E26A51462EA8C847CDF80080E023B9
S2144033D074222EA95F48B847009620231A46E0215B
S2144033E04FF48B70A84794F8302051461DA8C84724
S2144033F0CDF800804FF4847374220DEB02015548DB
S214403400B847009620231A464FF484714FF48B70C9
S214403410A84794F83120514625A8C847CDF80080E3
S2144034204FF49873742225A94A48B847009620233B
S2144034301A464FF498714FF48B70A847484B009348
S21440344040231A464FF4AB718020A84700223E4BDB
S2144034501A70444B1B78002B40F06182424B1B781D
S214403460002B40F0AF829BF80030002B00F0B88075
S214403470042121483D4DA84702211F48A847102255
S214403480002128483A4B984700253A4B1D703A4B46
S2144034901D708BF80050394B009380231A46B0219C
S2144034A06020254EB0474FF4C0734FF49E724FF4E1
S2144034B0A7712846264DA847A26AE36A002A14BF89
S2144034C01A460022236A616A01FB0323134A1360EB
S2144034D094F830306BB115461068294B98474FF03A
S2144034E03332284B284EB047284B984728602B68E5
S2144034F02B600A4B196851E060180E40BF17400019
S2144035002118400008104020F00F4020281040208E
S21440351000104020041040200C104020FC0F40209B
S214403520B118400000C00040A91B4000F80F4020E2
S214403530A30F402000AC4500A111400000B443005A
S214403540A10F4020A60F4020A90F4020AB0F4020DF
S214403550E51040002C8C400079284000008C470045
S214403560002C44009C0F4020A80F4020C31740006A
S214403570B11B4000A40F4020A20F4020009C4600F4
S214403580253D40003333F33F113E40003542400076
S214403590C71740000CC84700AD4A4000664A116055
S2144035A03B21664A11601A68002365492EA8654D7E
S2144035B0A847012300934FF4A7736A222EA96248B6
S2144035C0624DA8474FF480734FF49072E02118463E
S2144035D05F4DA8474FF480736022E0212020A84723
S2144035E098A85C4B984700287FF407AD5A4B1B7849
S2144035F023B95A4B1B78002B7FF403AD584B1B78EE
S214403600002B7FF42BAF574B1B78002B7FF41EAD5F
S214403610554B1B78002B7FF484AD544B1B78002B06
S2144036203FF474AE524B1B78002B3FF46FAE424BC8
S2144036301B68002B7FF40AAE00224D4B1A70012304
S2144036408BF8003062E64B4D4B4E2B4632464B498C
S2144036504B484C4FB847042149484B4FB847022186
S2144036604748B847494B1B683168334A106803449B
S2144036705B1A1360464B1B682968304A106803443F
S2144036805B1A1360102200214248434B98470022A1
S214403690424B1A70424B009380231A46B02160205A
S2144036A0404DA84737E6042135483F4DA8470221FC
S2144036B03348A8471022002136483C4B9847344EA2
S2144036C0324D3B4F33462A4639462D48DFF8B480C4
S2144036D0C04739682A68194D2B68C3F13B03284810
S2144036E0344FB8472B68C3F13B033360324E334FF9
S2144036F0DFF8D89033463A4649462148C047D9F87D
S21440370000203B680C49086831682D6829440291BE
S21440371001210191034400930B461948284DA847C0
S2144037200022284B1A70284B009380231A46B0215B
S21440373060201C4DA847F3E5F80F4020900140203C
S21440374000C84700AD4A40002C8C40007928400015
S214403750E51040006D054000AB0F4020AA0F40200A
S2144037609F0F4020A00F4020A50F40209E0F4020D6
S214403770A30F40202410402010104020F40F40207B
S21440378060180E40C7174000C3174000F00F402097
S2144037900810402000C00040B11B4000A10F402050
S2144037A0009C4600A1114000BF174000A91B4000E6
S2144037B028104020211840000010402004104020CF
S2144037C0B1184000A60F402000AC45000C10402029
S2144037D040F2DF1340F23F12002108468D4DA847C5
S2144037E08D4B009340231A460A2120208B4DA84734
S2144037F08B4B009340231A460A21E020A847E16BF2
S214403800CB888A88096800910A218020A847854B82
S2144038101B78002B6FD1844B009340231A464FF4FD
S214403820CB712020A847814B1B78002B6DD0804B56
S214403830009340231A464FF4CB71E020774DA847BB
S2144038407C4B009380231A46B0216020734DA847D6
S214403850794B93E803001D90ADF87810774E01271A
S214403860009754230A221DA93046754DA847214685
S21440387025A8744B984700975423742225A93046B0
S214403880A847A26AE36A002A14BF1A460022236A9F
S214403890616A01FB03236C4A136094F830306BB1C5
S2144038A015461068694B98474FF03332684B694E5F
S2144038B0B047694B984728602B682B60624B196865
S2144038C0664A11601A68002365492EA8654DA847C8
S2144038D0012300934FF4A7736A222EA95748584DE8
S2144038E0A847614B009320231A4654214FF48B700F
S2144038F04A4DA847AAE55D4B009340231A464FF42D
S214403900CB712020454DA8478DE7594B0093402367
S2144039101A464FF4CB712020404DA84790E74FF40D
S214403920A873FA22682174203A4DA847DFF86C91B4
S214403930226A494605A84B4EB047DFF8008101276A
S21440394000976823742205A940463D4DA847626A01
S21440395049460DA8B0470097902374220DA94046CB
S214403960A847A26A494615A8B0470097B8237422CC
S21440397015A94046A847E26A49462EA8B047009790
S214403980E02374222EA94046A84794F830204946A2
S2144039901DA8B04700974FF4847374220DEB0201C4
S2144039A04046A84794F83120494625A8B047009796
S2144039B04FF49873742225A94046A84700222D4B01
S2144039C01A704BE52C4D2D4E2B4632462C492D4831
S2144039D02D4FB8472D4B19683668204B1A682C4B2C
S2144039E018682D682B4B1B6803440A445B1B921BCC
S2144039F01B492EA81B4DA847012300934FF4A773DD
S214403A006A222EA90D480E4DA8470022224B1A7056
S214403A1029E500BFE51040007C944000A11140001D
S214403A207CC440009F0F4020009847009E0F4020D7
S214403A3000F04300009C4600E89340002C8C400079
S214403A4079284000394B4000FC0F4020253D40007F
S214403A503333F33F113E400035424000F80F4020DC
S214403A6000C84700AD4A400000204400004C4500D6
S214403A70007C45009C0F4020001040200410402051
S214403A800C10402060180E40C7174000F00F402032
S214403A900810402090014020A80F40200CC8470046
S214403AA081F0004102E000BF83F0004330B54FEAAA
S214403AB041044FEA430594EA050F08BF90EA020F17
S214403AC01FBF54EA000C55EA020C7FEA645C7FEAAA
S214403AD0655C00F0E2804FEA5454D4EB5555B8BFCD
S214403AE06D420CDD2C4480EA020281EA030382EA3E
S214403AF0000083EA010180EA020281EA0303362DD0
S214403B0088BF30BD11F0004F4FEA01314FF4801CA2
S214403B104CEA113102D0404261EB410113F0004FB4
S214403B204FEA03334CEA133302D0524263EB43036B
S214403B3094EA050F00F0A780A4F10104D5F1200E09
S214403B400DDB02FA0EFC22FA05F2801841F1000164
S214403B5003FA0EF2801843FA05F359410EE0A5F138
S214403B6020050EF1200E012A03FA0EFC28BF4CF069
S214403B70020C43FA05F3C01851EBE37101F000451F
S214403B8007D54FF0000EDCF1000C7EEB00006EEB2C
S214403B900101B1F5801F1BD3B1F5001F0CD34908B6
S214403BA05FEA30004FEA3C0C04F101044FEA44520D
S214403BB012F5800F80F09A80BCF1004F08BF5FEA94
S214403BC0500C50F1000041EB045141EA050130BD74
S214403BD05FEA4C0C404141EB010111F4801FA4F117
S214403BE00104E9D191F0000F04BF01460020B1FA6C
S214403BF081F308BF2033A3F10B03B3F120020CDAA4
S214403C000C3208DD02F1140CC2F10C0201FA0CF081
S214403C1021FA02F10CE002F11402D8BFC2F1200CE6
S214403C2001FA02F120FA0CFCDCBF41EA0C0190409C
S214403C30E41AA2BF01EB0451294330BD6FEA0404E5
S214403C401F3C1CDA0C340EDC04F11404C4F12002D0
S214403C5020FA04F001FA02F340EA030021FA04F3E2
S214403C6045EA030130BDC4F10C04C4F1200220FA39
S214403C7002F001FA04F340EA0300294630BD21FA77
S214403C8004F0294630BD94F0000F83F4801306BF3D
S214403C9081F480110134013D4EE77FEA645C18BF31
S214403CA07FEA655C29D094EA050F08BF90EA020FC8
S214403CB005D054EA000C04BF1946104630BD91EAC0
S214403CC0030F1EBF0021002030BD5FEA545C05D1C3
S214403CD04000494128BF41F0004130BD14F5800402
S214403CE03CBF01F5801130BD01F0004545F0FE4176
S214403CF041F470014FF0000030BD7FEA645C1ABFAB
S214403D00194610467FEA655C1CBF0B46024650EAE1
S214403D10013406BF52EA033591EA030F41F400210D
S214403D2030BD00BF90F0000F04BF0021704730B593
S214403D304FF4806404F132044FF000054FF0000168
S214403D4050E700BF90F0000F04BF0021704730B529
S214403D504FF4806404F1320410F0004548BF4042FE
S214403D604FF000013EE700BF42004FEAE2014FEA53
S214403D7031014FEA02701FBF12F07F4393F07F4F2E
S214403D8081F06051704792F0000F14BF93F07F4F60
S214403D90704730B54FF4607401F0004521F00041A3
S214403DA020E700BF50EA010208BF704730B54FF029
S214403DB000050AE050EA010208BF704730B511F02E
S214403DC0004502D5404261EB41014FF4806404F166
S214403DD032045FEA915C3FF4DCAE4FF003025FEAE8
S214403DE0DC0C18BF03325FEADC0C18BF033202EB70
S214403DF0DC02C2F1200300FA03FC20FA02F001FACA
S214403E0003FE40EA0E0021FA02F11444C1E600BF68
S214403E1070B54FF0FF0C4CF4E06C1CEA11541DBF1B
S214403E201CEA135594EA0C0F95EA0C0F00F0DEF8E6
S214403E302C4481EA030621EA4C5123EA4C5350EACB
S214403E40013518BF52EA033541F4801143F480131C
S214403E5038D0A0FB02CE4FF00005E1FB02E506F0AD
S214403E600042E0FB03E54FF00006E1FB03569CF002
S214403E70000F18BF4EF0010EA4F1FF04B6F5007F08
S214403E8064F5407404D25FEA4E0E6D4146EB06067A
S214403E9042EAC62141EA55514FEAC52040EA5E5003
S214403EA04FEACE2EB4F1FD0C88BFBCF5E06F1ED8AD
S214403EB0BEF1004F08BF5FEA500E50F1000041EBE4
S214403EC0045170BD06F0004646EA010140EA020091
S214403ED081EA0301B4EB5C04C2BFD4EB0C0541EAB3
S214403EE0045170BD41F480114FF0000E013C00F3C8
S214403EF0AB8014F1360FDEBF002001F0004170BDEC
S214403F00C4F10004203C35DA0C341BDC04F1140404
S214403F10C4F1200500FA05F320FA04F001FA05F290
S214403F2040EA020001F0004221F0004110EBD3705D
S214403F3021FA04F642EB06015EEA430E08BF20EA89
S214403F40D37070BDC4F10C04C4F1200500FA04F32C
S214403F5020FA05F001FA04F240EA020001F00041BE
S214403F6010EBD37041F100015EEA430E08BF20EA31
S214403F70D37070BDC4F1200500FA05F24EEA020E79
S214403F8020FA04F301FA05F243EA020321FA04F0A8
S214403F9001F0004121FA04F220EA020000EBD3705F
S214403FA05EEA430E08BF20EAD37070BD94F0000F5F
S214403FB00FD101F00046400041EB010111F4801F93
S214403FC008BF013CF7D041EA060195F0000F18BF44
S214403FD0704703F00046520043EB030313F4801F80
S214403FE008BF013DF7D043EA0603704794EA0C0F3A
S214403FF00CEA135518BF95EA0C0F0CD050EA410650
S21440400018BF52EA4306D1D181EA030101F00041CC
S2144040104FF0000070BD50EA410606BF10461946F4
S21440402052EA430619D094EA0C0F02D150EA013600
S21440403013D195EA0C0F05D152EA03361CBF104641
S21440404019460AD181EA030101F0004141F0FE41E0
S21440405041F470014FF0000070BD41F0FE4141F464
S214404060780170BD70B54FF0FF0C4CF4E06C1CEA64
S21440407011541DBF1CEA135594EA0C0F95EA0C0F19
S21440408000F0A7F8A4EB050481EA030E52EA0335D4
S2144040904FEA013100F088804FEA03334FF08055F5
S2144040A045EA131343EA12634FEA022245EA111522
S2144040B045EA10654FEA00260EF000419D4208BFD3
S2144040C0964244F1FD0404F5407402D25B084FEA80
S2144040D03202B61A65EB03055B084FEA32024FF42C
S2144040E080104FF4002CB6EB020E75EB030E22BF89
S2144040F0B61A754640EA0C005B084FEA3202B6EB49
S214404100020E75EB030E22BFB61A754640EA5C00F7
S2144041105B084FEA3202B6EB020E75EB030E22BF87
S214404120B61A754640EA9C005B084FEA3202B6EB88
S214404130020E75EB030E22BFB61A754640EADC0047
S21440414055EA060E18D04FEA051545EA16754FEAA9
S21440415006164FEAC30343EA52734FEAC2025FEAC7
S2144041601C1CC0D111F4801F0BD141EA00014FF056
S21440417000004FF0004CB6E711F4801F04BF014327
S2144041800020B4F1FD0C88BFBCF5E06F3FF6AFAE43
S214404190B5EB030C04BFB6EB020C5FEA500C50F1D3
S2144041A0000041EB045170BD0EF0004E4EEA113156
S2144041B014EB5C04C2BFD4EB0C0541EA045170BD5D
S2144041C041F480114FF0000E013C90E645EA060EA1
S2144041D08DE60CEA135594EA0C0F08BF95EA0C0FCF
S2144041E03FF43BAF94EA0C0F0AD150EA01347FF417
S2144041F034AF95EA0C0F7FF425AF104619462CE7EE
S21440420095EA0C0F06D152EA03353FF4FDAE104650
S214404210194622E750EA410618BF52EA43067FF4A1
S214404220C5AE50EA41047FF40DAF52EA43057FF431
S214404230EBAE12E74A0011D212F5001211D20DD59C
S2144042406FF47873B3EB62520ED44FEAC12343F057
S214404250004343EA505323FA02F070474FF0000001
S214404260704750EA013002D14FF0FF3070474FF0B0
S2144042700000704770B50F4E0F4D761BB61018BF36
S214404280002405D0013455F8043B9847A642F9D19E
S2144042900A4E0B4D761B78F027FCB61018BF00244C
S2144042A006D0013455F8043B9847A642F9D170BD74
S2144042B070BD00BFF4CA4700F4CA4700FCCA4700B6
S2144042C0F4CA4700024B0146186800F003B800BF26
S2144042D0940140202DE9F04F01F10B06162E83B0D5
S2144042E0054640F29E8036F0070600F1BD80B1429A
S2144042F000F2BA8000F0ECFAB6F5FC7FC0F093828C
S214404300730A00F0B880042B00F27981B30903F1F8
S214404310390003F1380EC300BF4F3B44A3F10801F8
S2144043205C68A14206D10CE0002A80F2AA80E468CC
S214404330A14206D0636823F003039A1B0F2AF3DDDD
S21440434070463C69DFF8E4E2744500F0AB81636890
S21440435023F003039A1B0F2A00F39081002AC7F824
S21440436014E0C7F810E080F29D80B3F5007F80F03F
S2144043706181DB0803F1010C99107A6857F83C809C
S214404380C4F8088001238B4007EBCC01134308395F
S214404390E1607B6047F83C40C8F80C40821001243E
S2144043A094409C4200F28B801C4206D120F00300D1
S2144043B064001C4200F10400FAD007EBC009CC466A
S2144043C08046DCF80C309C4507D16DE1002A80F22F
S2144043D07B81DB689C4500F06781596821F00301CA
S2144043E08A1B0F2AF2DDD3F80CC0D3F8088000935E
S2144043F09C19284646F0010642F001055E60C8F862
S2144044000CC0CCF808807C613C61C4F80CE0C4F871
S21440441008E065605A5000F061FA009B03F108041A
S2144044201EE0102920D800F053FA10261823022048
S214404430794F3B44A3F108025C68944200F03D810A
S2144044406368E168A66823F00303234428465A6855
S214404450F16042F001028E605A6000F03FFA083484
S214404460204603B0BDE8F08F00240C2320462B6086
S21440447003B0BDE8F08F40204FF400734FF03F0E7E
S2144044804AE72344E1685A68A66842F00102F160B0
S21440449028468E605A6000F021FA0834204603B061
S2144044A0BDE8F08F234428465A6842F001025A601D
S2144044B000F014FA0834204603B0BDE8F08FBC681C
S2144044C0636823F00308B04504D3A8EB06030F2B1C
S2144044D000F38580DFF85891504BD9F800201B68D0
S2144044E00132334404EB080A00F0558103F580534B
S2144044F00F3323F47F6B2BF00F0B5946284600F002
S214404500F3F9411C024600F0FC80824500F2F78039
S214404510434B19685944196000F04D81D9F80000A2
S21440452001301BBFA2EB0A0A5144C9F800201960AB
S21440453012F0070100F01581C1F10800C1F5805165
S2144045400244083102EB0B09C9F30B09A1EB090938
S214404550494628460193009200F0C6F9431C9DE860
S2144045600C0000F04381801A484440F0010019686E
S214404570BA604944BC425060196017D0B8F10F0F7A
S21440458040F2FB806068A8F10C0222F0070204EBC0
S214404590020E00F001004FF0050C10430F2A606039
S2144045A0CEF804C0CEF808C000F217811D4BBC6898
S2144045B01A68914288BF19601B4B1A68914262681C
S2144045C088BF196022F003029642A2EB060301D888
S2144045D00F2B04DC284600F081F9002440E7A2199E
S2144045E043F0010346F0010666602846BA60536011
S2144045F000F074F90834204603B0BDE8F08F142B61
S21440460071D9542B00F2A380330B03F16F0003F1F2
S2144046106E0EC30080E600BFC0054020E00F40207D
S214404620B00F4020D80F4020DC0F4020C805402067
S214404630C80940205A0A042A5BD9142A00F2AE80E0
S21440464002F15C01C9005B3207EB010C7958ACF112
S214404650080C8C4500F088804A6822F0030293429A
S21440466073D289688C45F7D1DCF80C207B68E26011
S214404670C4F808C09460CCF80C408FE6A11946F008
S214404680010C42F00106C4F804C02846796139613D
S214404690C1F80CE0C1F808E04E60E25000F01EF9A8
S2144046A00834DDE67B6879E608F1010818F0030F68
S2144046B00CF1080C7FF485AE2DE0DC68A34208BF01
S2144046C002303FF43EAEBBE619441C464A68DB68FF
S2144046D054F8086F42F001024A602846F3609E6034
S2144046E000F0FCF8BCE603F15C0003F15B0EC3008F
S2144046F012E69A0902F13901C9003832A4E7BC42F1
S21440470054D0BC68626822F003025DE759F8083965
S214404710994540F0868010F0030F00F1FF30F5D148
S2144047207B6823EA04037B6064009C423FF6C7AE86
S214404730002C3FF4C4AE1C4240467FF43EAE6400BC
S2144047401C4200F10400FAD037E68C468CE7B3F5FD
S214404750AA7F15D8F30B03F1780003F1770EC30058
S214404760DAE54FF48051EDE67B689210012101FABC
S21440477002F213437B60624679E70123536029E7E0
S21440478040F25452934222D8B30C03F17D0003F119
S2144047907C0EC300C0E503F1100BAEE6542A29D8C0
S2144047A01A0B02F16F01C9006E324DE7204B1968B3
S2144047B059441960B2E6CAF30B0000287FF4AEAE47
S2144047C008EB0B03BA6843F001035360EEE67F2024
S2144047D04FF47E734FF07E0E9EE504F108012846A6
S2144047E0009302F011FE009B1968DFE601204FF0AF
S2144047F00009BCE6B2F5AA7F05D8DA0B02F17801CB
S214404800C900773220E740F254518A4205D89A0CC4
S21440481002F17D01C9007C3216E74FF47E717E229C
S21440482012E77B6880E7F00806F1080300E600BF61
S214404830B00F402070B4860746D0541E002A41D0A0
S214404840CAB2034602E014F1FF343BD303F8012B0F
S2144048509D07F8D1032C2ED9CDB245EA05250F2C5D
S21440486045EA054519D903F110022646103E0F2E9B
S21440487042F8105C42F80C5C42F8085C42F8045C73
S21440488002F11002F2D8A4F1100222F00F0204F056
S2144048900F041032032C13440DD91E462246043A08
S2144048A0032A46F8045BFAD8221F22F00302043299
S2144048B0134404F003042CB1C9B21C4403F8011B92
S2144048C09C42FBD170BC704714460346C2E700BF0B
S2144048D0014802F0BBBE00BF3C104020014802F039
S2144048E0B7BE00BF3C10402038B5074C00230546F5
S2144048F008462360FDF780FC431C00D038BD236883
S214404900002BFBD02B6038BD5010402000290CBF38
S214404910022200224FF4806300F000B82DE9F043F5
S214404920614C256883B004460F4690461E4615B136
S214404930AB6B002B64D0B8F1020F06D0B8F1010F74
S21440494000F29F80002EC0F29C80636ED80734D55C
S2144049502146284602F05EFC216B41B104F140033B
S214404960994202D0284602F04FFD00232363B4F953
S2144049700C300022A26162601A063AD423F44A63DD
S21440498023F00303B8F1020FA3811DD001AB6A46A2
S2144049902146284602F05EFEA3891843A081002ED9
S2144049A032D1009E3046FFF78DFC074600286BD07C
S2144049B0A38943F08003A38128E0A3899905C7D43F
S2144049C0A06D02F043FEC3E70025616E002604F1A9
S2144049D0430243F002030120A660CE07A381226073
S2144049E02261606101D498053ED5284603B0BDE8F3
S2144049F0F0832169284602F007FDB4F90C30BDE784
S214404A00284602F05FFC96E7002FCBD0AB6B002B1E
S214404A1033D0009BB4F90C2027609E421CBF42F462
S214404A200062A281B8F1010F04BF42F00102A281E8
S214404A3092B212F00803276166610ED0D1071AD5EC
S214404A40656E7642002315F00105A661A36009D085
S214404A500025284603B0BDE8F083A360656E15F0D8
S214404A600105F5D19305C0D4A06D02F0F1FD2846AE
S214404A7003B0BDE8F083A660F0E7284602F022FCCB
S214404A80C7E74FF0FF35B0E7DDF80090B14504D0FA
S214404A904846FFF717FC074620B9B4F90C304FF0EC
S214404AA0FF3592E74E4683E7940140200EB4F0B5BA
S214404AB09CB021AB0F4953F8042B019305466FF089
S214404AC00044086802954FF402774FF6FF7602A935
S214404AD00695ADF8147004940794ADF8166000F08F
S214404AE0FDF8029B00221A701CB0BDE8F04003B0EF
S214404AF0704700BF94014020830710B5044610D18C
S214404B000268A2F1013323EA020313F0803F08D182
S214404B1050F8042FA2F1013323EA020313F0803F3A
S214404B20F6D003781BB110F8013F002BFBD100F004
S214404B3003F8204610BD00BF80EA0102844612F00A
S214404B40030F4FD111F0030F32D14DF8044D11F041
S214404B50040F51F8043B0BD0A3F101329A4312F0F4
S214404B60803F04BF4CF8043B51F8043B16D100BFCD
S214404B7051F8044BA3F101329A4312F0803FA4F15E
S214404B8001320BD14CF8043BA24312F0803F04BFE5
S214404B9051F8043B4CF8044BEAD023460CF8013B52
S214404BA013F0FF0F4FEA3323F8D15DF8044B7047FC
S214404BB011F0010F06D011F8012B0CF8012B002A3A
S214404BC008BF704711F0020FBFD031F8022B12F029
S214404BD0FF0F16BF2CF8022B8CF8002012F47F4FE4
S214404BE0B3D1704711F8012B0CF8012B002AF9D1EC
S214404BF0704700BF000000000000000000000000FA
S214404C0090F800F06DE9024520F007016FF0000CC7
S214404C1010F0070491F820F040F049804FF000046F
S214404C206FF00700D1E9002391F840F000F108004A
S214404C3082FA4CF2A4FA8CF283FA4CF3A2FA8CF382
S214404C404BBBD1E9022382FA4CF200F10800A4FAE9
S214404C508CF283FA4CF3A2FA8CF3E3B9D1E904233D
S214404C6082FA4CF200F10800A4FA8CF283FA4CF374
S214404C70A2FA8CF37BB9D1E9062301F1200182FA2E
S214404C804CF200F10800A4FA8CF283FA4CF3A2FA34
S214404C908CF3002BC6D0002A04BF04301A4612BA42
S214404CA0B2FA82F2FDE8024500EBD2007047D1E945
S214404CB0002304F00305C4F100004FEAC50514F0D4
S214404CC0040F91F840F00CFA05F562EA05021CBFA5
S214404CD063EA050362464FF00004A9E72DE9F04F6A
S214404CE0C3B00C460B9192460F930C9002F09CFC7E
S214404CF003681A931846FFF783FFA389199019068D
S214404D0003D52369002B01F0038000230DF1C80969
S214404D101393159314932793269318931B930993F1
S214404D20CDF89490C846169317939AF80030544698
S214404D30E3B1252B02D119E0252B03D014F8013F0F
S214404D40002BF9D1A4EB0A0585B1269B279AC8F813
S214404D5000A001332A44072BC8F804502792269314
S214404D607FDC08F10808099B2B4409932378002B25
S214404D707FD000231A468DF8773019460D939B4610
S214404D804FF0FF3063780A9004F1010A0AF1010AF5
S214404D90A3F12000582800F2C183DFE810F0380263
S214404DA0BF03BF034002BF03BF03BF03BF03BF032E
S214404DB0BF0345020302BF035D006B02BF038602CA
S214404DC09D039D039D039D039D039D039D039D039E
S214404DD09D03BF03BF03BF03BF03BF03BF03BF03A0
S214404DE0BF03BF03BF0337035703BF035703BF03C6
S214404DF0BF03BF03BF039803BF03BF03AD03BF0397
S214404E00BF03BF03BF03BF035902BF03BF031E0355
S214404E10BF03BF03BF03BF03BF03BF03BF03BF033D
S214404E20BF03BF03C602DB025703570357038B0279
S214404E30DB02BF03BF039002BF039D02CC01B40256
S214404E400802BF03E101BF037E00BF03BF030D029C
S214404E500D980F9340420D904BF0040B9AF800309B
S214404E6094E725AA0B990C9803F04AF840B9C8462F
S214404E7079E7279B23B10C980B9925AA03F040F8B5
S214404E800B9B9B8913F0400F099B18BF4FF0FF33D5
S214404E900993099843B0BDE8F08F1BF0200F11939B
S214404EA040F0DD810F9A1BF0100F134640F06E85E0
S214404EB01BF0400F00F06A85148804320025012359
S214404EC00F9200278DF877700A994A1C00F0658289
S214404ED02BF08002079254EA050240F064820029D3
S214404EE040F03C84002B40F0D7841BF001030E9327
S214404EF000F0048642AE302306F8413D0A9B0E9AE7
S214404F009342B8BF134608930023129317B1089BE9
S214404F1001330893079B13F00203109302D0089BBB
S214404F2002330893079B13F0840540F00E830D9BD5
S214404F30089AA3EB020BBBF1000F40F30683BBF1CC
S214404F40100F279C269A29DD43462146A84610275F
S214404F500C9C0B9D06E0ABF1100BBBF1100F03F160
S214404F60080318DD0132B74826921031072A2791E8
S214404F7083E88100EFDD25AA2946204602F0C0FFDF
S214404F8000287FF47DAFABF1100BBBF1100F2799D3
S214404F90269A4B46E6DC45460C4698460132A94BD7
S214404FA026925C44072A279488E8080800F39884E9
S214404FB09DF8777008F1080877B1269B01330134D5
S214404FC00DF177010122072B2794269388E80600E7
S214404FD000F3DB8308F10808109B6BB1269B013376
S214404FE002341EA90222072B2794269388E806003F
S214404FF000F3D68308F10808802D00F015830A9B3D
S2144050000E9A9F1A002F36DD102F269B8E4D27DDD9
S21440501042462146B0464FF0100B2E460C9C0B9D48
S21440502004E0103F102F02F1080215DD0133103165
S214405030072B2791269382E84008F2DD25AA2946C9
S214405040204602F05DFF00287FF41AAF103F102F75
S2144050502799269B4A46E9DC35460C464646904606
S21440506001333C44072B2794269388E8A00000F39E
S214405070818308F10808079BDF0500F16882269BBC
S2144050800E99C8F8006001330C44072B2794C8F8E3
S2144050900410269300F34D8308F10808079B5B072E
S2144050A03AD50D9B089A9D1A002D35DD102D269B6E
S2144050B020DD10260C9FDDF82CB004E0103D102DAE
S2144050C008F1080816DD01335E4A26931034072B94
S2144050D0279488E84400F1DD25AA5946384602F070
S2144050E00FFF00287FF4CCAE103D102D279C269B4A
S2144050F0C846E8DC0133534A26932C44072B2794B2
S21440510088E8240008DD25AA0B990C9802F0F8FEE2
S21440511000287FF4B5AE279C099B0D9A08998A42D1
S214405120ACBF9B185B180993002C40F00D830023FE
S2144051302693C846F9E511931BF0200340F0E3811F
S2144051401BF0100240F02E841BF0400300F02A842F
S2144051500F9913460A4604320C880F920025B0E693
S2144051600F9A1193166800248DF87740151D002E6F
S21440517000F0A7860A9A531C00F00986214630465E
S21440518002F096FA002800F0E186831B0E930A94FC
S2144051900F95CDF81CB023EAE373089312949DF85C
S2144051A07770B3E69AF8003001222B21EEE54BF0FB
S2144051B0200B9AF80030E9E51193002A40F09587D5
S2144051C0224B18931BF0200F40F011810F9A1BF0D2
S2144051D0100F134640F0E1831BF0400F00F0DD83D4
S2144051E0043314880F9300251BF0010F00F00C8148
S2144051F054EA050300F0088130239DF844208DF8DA
S21440520078308DF879204BF0020B022359E69AF855
S214405210003000297FF4BAAD01222021B6E54BF0DC
S214405220010B9AF80030B1E50F9C23680D931846A1
S2144052300028234603F10403FFF60AAE0F939AF8BC
S2144052400030A3E5A8C84700B8C8470088C847004C
S2144052504BF0100B1BF0200F11933FF423AE0F9D25
S214405260073525F0070303F10802D3E900450F92FE
S214405270012326E69AF800302A2B0AF1010400F0B2
S2144052802787A3F130000928A24600F2AD86002306
S2144052901C461AF8013B04EB840400EB4404A3F1DB
S2144052A030000928F5D90A9472E54BF0800B9AF83D
S2144052B000306BE54BF0400B9AF8003066E59AF804
S2144052C000306C2B03BF9AF801304BF0200B0AF1EC
S2144052D0010A4BF0100B59E5002A40F011871BF0ED
S2144052E0200F40F0F9841BF0100F40F0AC841BF008
S2144052F0400F00F0A8840F9A136804320F92BDF84E
S21440530024201A8011E50F99B34B0C68189330226D
S214405310782304318DF8793011934BF0020B0F91BE
S21440532000258DF878200223CBE50F9911930A6863
S2144053308DF8A02000230A461F468DF877300432A9
S21440534001230893CDF81CB00A9712970F920E933C
S21440535028AEDFE51193002A40F0EA861BF0200FC6
S2144053605DD11BF0100F40F008831BF0400F00F09B
S21440537004830F99B1F900400431E51722462B46C5
S2144053800F91002A73F1000358DB0A999DF8777055
S2144053904A1C4FF001037FF49BAD54EA050200F02F
S2144053A0DF81CDF81CB0012B00F07B82022B40F051
S2144053B0068218984E46230904F00F0143EA057307
S2144053C02A091C461546435C06F8013D54EA050387
S2144053D0F1D1A9EB06030E9390E51193002A40F015
S2144053E0A3867E4B18931BF0200F3FF4EFAE0F9D25
S2144053F0073525F0070303F108021BF0010F0F9253
S214405400D3E900457FF4F4AE02235AE51193002A0F
S21440541040F086864BF0100B1BF0200FA1D00F9D5E
S214405420073525F00705D5E90023002A05F10801D0
S2144054301D4673F100030F911446A6DA2D276442E9
S21440544065EB45058DF8777001233DE51193002AFD
S21440545040F062860F9D073525F0070303F10802EA
S2144054600F921A6815925B681493149B159D23F04F
S2144054700044284621464FF0FF32594B03F0D0F9FE
S214405480002840F04A83284621464FF0FF32544BCE
S21440549003F0A8F9002840F0408315A80DC81499D9
S2144054A003F096F9002840F030859DF877704D4E11
S2144054B04D4B2BF080000790119803220021089254
S2144054C00A914728D8BF1E460E9212911EE54BF011
S2144054D0080B9AF8003059E4A3F1300000231C462C
S2144054E01AF8013B04EB840400EB4404A3F13000BB
S2144054F00928F5D90D944BE44BF0100B11931BF093
S21440550020033FF41DAE0F9D073525F0070303F13A
S2144055100802D3E900450F920023D2E41193002AF3
S21440552040F0E785119A002A3FF4A3AC00230121FE
S2144055301F4608918DF8A020CDF81CB08DF8773026
S2144055400A9312930E9128AEE4E4279C34E5119B0F
S214405550652B40F3A78015A80DC8149903F02EF9C3
S214405560002800F05081269B204AC8F800200133CE
S21440557001340122072B27942693C8F8042000F311
S2144055806A8308F108081F9B139A279C934203DB03
S214405590079BDD077FF582AD269B19991A9AC8F8B6
S2144055A0002001330C44072BC8F804102794269398
S2144055B000F39E8308F10808139B5E1E002E7FF7BB
S2144055C06DAD102E269B0A4D40F3F58122461027DE
S2144055D0DDF830B00B9C13E088C8470074C847001D
S2144055E0FFFFEF7F68C8470064C84700A4C847006D
S2144055F0B8C8470008F10808103E102E40F3DA817C
S21440560001331032072B2792269388E8A000F1DD5D
S21440561025AA2146584602F073FC00287FF430AC99
S214405620279A269BC846E7E70D9B089A9F1A002FA5
S2144056307FF7E5AC102F269BB64D27DD4246214628
S214405640B0464FF0100B2E460C9C0B9D04E0103FCE
S214405650102F02F1080215DD01331031072B279178
S214405660269382E84008F2DD25AA2946204602F025
S21440567047FC00287FF404AC103F102F2799269B48
S2144056804A46E9DC35460C464646904601333C449D
S214405690072B2794269388E8A00000F3328208F16F
S2144056A00808ACE4139B269F012B40F3FE8101378C
S2144056B001340123072F27942697C8F80060C8F8BE
S2144056C0043000F3038208F10808199A1A9BC8F8B8
S2144056D0003001371444072F27942697C8F8042033
S2144056E000F3008208F1080815A80DC8149903F0C5
S2144056F065F8139B002840F00181013B01370136D5
S2144057001C44072F26972794C8F80060C8F8043032
S21440571000F3278108F108081B9AC8F804200137CF
S214405720144421AB072F27942697C8F800307FF7FC
S214405730B3AC25AA0B990C9802F0E2FB00287FF444
S2144057409FAB279CC846A9E425AA0B990C9802F063
S214405750D7FB00283FF4EBACFFF792BBDDF81CB05C
S214405760012B00F03481022B25D1CDF81CB000244B
S21440577000251EE625AA0B990C9802F0C1FB0028CE
S2144057807FF47EAB279CC84675E425AA0B990C98F7
S21440579002F0B6FB00287FF473AB279CC8461BE498
S2144057A025AA0B990C9802F0ABFB00287FF468AB57
S2144057B0279CC84620E4CDF81CB000240025494666
S2144057C000E03146E20842EA4572E80804F0070382
S2144057D005461446303354EA050201F8013C01F10F
S2144057E0FF36EED1079AD2077FF5F3AD302B3FF464
S2144057F0F0AD0239302306F8013CA9EB01030E93C5
S2144058000E46FFF77BBB1F99002940F32E82129B62
S214405810139A9342A8BF1346002B1F460DDD269BC6
S214405820C8F8006001333C44072B2794C8F804703E
S214405830269300F31F8308F10808129B002FA8BF89
S214405840DB1B002B1F4640F3D680102F269B314D86
S21440585040F3ED8142462146B0464FF0100B2E46AF
S2144058600C9C0B9D04E00832103F102F40F3DB8168
S21440587001331031072B2791269382E84008F2DD4A
S21440588025AA2946204602F03BFB00287FF4F8AACA
S2144058902799269B4A46E7E70A9B0E934E46FFF714
S2144058A02DBB002D08BF0A2CC0F08F804E462046E8
S2144058B029460A22002302F0F1FF303206F8012D75
